:100000000C942A000C9434000C9434000C943400AA
:100010000C9434000C9434000C9434000C94340090
:100020000C9434000C9434000C9434000C94340080
:100030000C9434000C9434000C9434000C94340070
:100040000C9434000C9434000C9434000C94340060
:100050000C94340011241FBECFE5D4E0DEBFCDBF29
:100060000E9436000C945D000C9400008FEF81BB61
:1000700084BB87BB8ABB82BB8BBB81E885BB88BB4B
:100080002FE986E891E0215080409040E1F700C0E0
:1000900000008BB380958BBB88B3809588BB88B3F9
:1000A00085BB8BB382BB2FE986E891E0215080406D
:0E00B0009040E1F700C00000ECCFF894FFCFC5
:00000001FF
